:100000000C942A000C943C000C943C000C943C0092
:100010000C943C000C943C000C943C000C943C0070
:100020000C943C000C943C000C943C000C943C0060
:100030000C943C000C943C000C943C000C943C0050
:100040000C943C000C943C000C943C000C944E002E
:100050000C943C0011241FBECFE5D4E0DEBFCDBF21
:1000600020E0A0E6B0E001C01D92A336B207E1F7A0
:100070000E943E000C947D000C9400008FE087BB32
:1000800088E083BF88EC8CBF81E08093620082E0CF
:1000900089BF789483B7856083BFFFCF1F920F928B
:1000A0000FB60F9211248F939F93809160009091CF
:1000B000610001969093610080936000049744F47E
:1000C0008091620088BB80916200880F80936200FB
:1000D0008091600090916100049744F018BA81E02B
:1000E0008093620010926100109260009F918F9146
:0E00F0000F900FBE0F901F901895F894FFCF41
:00000001FF
