:100000000C942A000C943F000C943F000C943F0089
:100010000C943F000C943F000C943F000C943F0064
:100020000C943F000C943F000C943F000C943F0054
:100030000C943F000C943F000C943F000C943F0044
:100040000C943F000C943F000C943F000C943F0034
:100050000C943F0011241FBECFE5D4E0DEBFCDBF1E
:1000600010E0A0E6B0E0E4E3F1E002C005900D92FC
:10007000AC37B107D9F70E9488000C9498000C9413
:10008000000088BBA898A998AA9A85E08A95F1F7FC
:100090000000AA988FED9EE20197F1F700C00000E2
:1000A000089588BBA89AA998AA9A85E08A95F1F73D
:1000B0000000AA988FE99FE00197F1F700C00000C7
:1000C00008958FEF84BB87BB2FEF89EF90E021501D
:1000D00080409040E1F700C0000088E30E944100AA
:1000E0008CE00E94410086E00E94410081E00E9475
:1000F000410080E80C944100CF93DF93EC0189919B
:10010000882319F00E945100FACFDF91CF91089512
:100110000E94610080E690E00E947C0080EC0E94DA
:1001200041008CE690E00E947C0080E090E0089521
:04013000F894FFCF71
:100134004B656C6F6D706F6B203130004D696B7265
:0C0144006F6B6F6E74726F6C6C657200F4
:00000001FF
