S016000046696E616C50726F6A65637431302E73726563EC
S11300000C942A000C9447000C9447000C9447006D
S11300100C9447000C9447000C9447000C94470040
S11300200C9447000C9447000C9447000C94510026
S11300300C9447000C9447000C9447000C94470020
S11300400C9447000C9447000C9447000C94470010
S11300500C94470011241FBECFE5D4E0DEBFCDBF12
S113006010E0A0E6B0E0E6E0F3E002C005900D92F7
S1130070A03AB107D9F721E0A0EAB0E001C01D928F
S1130080A733B207E1F70E94DA000C9481010C94C3
S1130090000086E880BD10BC87E689B988E98AB982
S11300A008951F920F920FB60F9211248F939F936E
S11300B0AF93BF93EF93FF938CB1E091A200F0E074
S11300C0E953FF4F80838091A2008F5F8093A20049
S11300D08091A200873078F4A091A200E091A20060
S11300E0B0E0AA53BF4FF0E0E15AFF4F9C918081EA
S11300F098131092A2008091A200823318F081E03C
S11301008093A100FF91EF91BF91AF919F918F9147
S11301100F900FBE0F901F90189585BBDD98DE9849
S1130120DF9A85E08A95F1F70000DF988FED9EE273
S11301300197F1F700C00000089585BBDD9ADE98B1
S1130140DF9A85E08A95F1F70000DF988FE99FE058
S11301500197F1F700C0000008958FEF8ABB84BBBC
S11301602FEF89EF90E0215080409040E1F700C0EC
S1130170000088E30E948D008CE00E948D0086E0E0
S11301800E948D0081E00E948D0080E80C948D0017
S1130190CF93DF93EC018991882319F00E949D008D
S11301A0FACFDF91CF91089581E00E948D0080E81D
S11301B00C948D000E94AD000E94490086E690E0F8
S11301C00E94C80080EC0E948D0081E790E00E94AC
S11301D0C8002FEF8BE792E9215080409040E1F76F
S11301E000C000000E94D40078948091A100813066
S11301F0E1F7F89480E090E02091A20030E08217CB
S1130200930724F41092A2000196F6CF1092A10055
S113021080E80E948D0081E890E00E94C800C9ED4A
S1130220D0E00DEC10E08991F80181938F010E94D8
S11302309D00F0E0C53EDF07B1F780EC0E948D0021
S113024087E890E00E94C800CEE1D0E0FE01E953C7
S1130250FF4F8081FE01E55DFE4F80830E949D007B
S1130260C032D10511F4C1E2D0E02196CB32D105E0
S11302706CF378942FEF8BE792E921508040904003
S1130280E1F700C000000E94D4008CE890E00E94D6
S1130290C800CEECD0E006EB10E08991F801819320
S11302A08F010E949D00F0E0C73DDF07B1F780ECAD
S11302B00E948D0083E990E00E94C800C6E3D0E06C
S11302C0FE01E953FF4F8081FE01ED55FF4F80830E
S11302D00E949D00CA33D10531F48AE990E00E945E
S11302E0C800CBE3D0E02196CC33D1054CF32FEFFB
S11302F08BE792E9215080409040E1F700C0000074
S109030074CFF894FFCF56
S11303062447504747414B656C6F6D706F6B2034C3
S1130316004D696B726F6B6F6E74726F6C6C657285
S1130326004C41543A20004C4F473A0054494D453D
S11303363A2000414C54493A2000204D44504C0088
S9030000FC
