S016000046696E616C50726F6A65637431302E73726563EC
S11300000C942A000C9447000C9447000C9447006D
S11300100C9447000C9447000C9447000C94470040
S11300200C9447000C9447000C9447000C94510026
S11300300C9447000C9447000C9447000C94470020
S11300400C9447000C9447000C9447000C94470010
S11300500C94470011241FBECFE5D4E0DEBFCDBF12
S113006010E0A0E6B0E0E6ECF2E002C005900D92EC
S1130070A439B107D9F721E0A4E9B0E001C01D9289
S1130080A132B207E1F70E94DA000C9461010C94EA
S1130090000086E880BD10BC87E689B988E98AB982
S11300A008951F920F920FB60F9211248F939F936E
S11300B0AF93BF93EF93FF938CB1E0919600F0E080
S11300C0EF54FF4F8083809196008F5F809396005A
S11300D080919600873078F4A0919600E091960084
S11300E0B0E0A055BF4FF0E0E15AFF4F9C918081F2
S11300F098131092960080919600823318F081E054
S113010080939500FF91EF91BF91AF919F918F9153
S11301100F900FBE0F901F90189585BBDD98DE9849
S1130120DF9A85E08A95F1F70000DF988FED9EE273
S11301300197F1F700C00000089585BBDD9ADE98B1
S1130140DF9A85E08A95F1F70000DF988FE99FE058
S11301500197F1F700C0000008958FEF8ABB84BBBC
S11301602FEF89EF90E0215080409040E1F700C0EC
S1130170000088E30E948D008CE00E948D0086E0E0
S11301800E948D0081E00E948D0080E80C948D0017
S1130190CF93DF93EC018991882319F00E949D008D
S11301A0FACFDF91CF91089581E00E948D0080E81D
S11301B00C948D000E94AD000E94490086E690E0F8
S11301C00E94C80080EC0E948D0081E790E00E94AC
S11301D0C8002FEF8BE792E9215080409040E1F76F
S11301E000C000000E94D400789480919500813072
S11301F0E1F7F89480E090E02091960030E08217D7
S1130200930724F4109296000196F6CF109295006D
S113021080E80E948D0081E890E00E94C800C3EC51
S1130220D0E007EB10E08991F80181938F010E94DF
S11302309D00F0E0CF3CDF07B1F780EC0E948D0019
S113024087E890E00E94C800CEE1D0E0FE01EF54C0
S1130250FF4F8081FE01EB5EFE4F80830E949D0074
S1130260C632D10511F4C7E2D0E02196CB32D105D4
S11302706CF378942FEF8BE792E921508040904003
S1130280E1F700C000000E94D4008CE890E00E94D6
S1130290C800C8EBD0E000EA10E08991F80181932E
S11302A08F010E949D00F0E0CE3CDF07B1F72FEFF5
S11302B08BE792E9215080409040E1F700C00000B4
S10902C094CFF894FFCF77
S11302C62447504747414B656C6F6D706F6B203404
S11302D6004D696B726F6B6F6E74726F6C6C6572C6
S11302E6004C41543A20004C4F473A0054696D651E
S10702F63A200000A6
S9030000FC
