:100000000C942A000C9447000C9447000C94470071
:100010000C9447000C9447000C9447000C94470044
:100020000C9447000C9447000C9447000C9451002A
:100030000C9447000C9447000C9447000C94470024
:100040000C9447000C9447000C9447000C94470014
:100050000C94470011241FBECFE5D4E0DEBFCDBF16
:1000600010E0A0E6B0E0E8EBF2E002C005900D92EF
:10007000AC38B107D9F721E0ACE8B0E001C01D927F
:10008000A731B207E1F70E94E7000C945A010C94E3
:10009000000086E880BD10BC87E689B988E98AB986
:1000A00008951F920F920FB60F9211248F939F9372
:1000B000AF93BF93EF93FF938CB1E0918E00F0E08C
:1000C000E955FF4F808380918E008F5F80938E0073
:1000D00080918E00873078F4A0918E00E0918E00A0
:1000E000B0E0AA55BF4FF0E0E15AFF4F9C918081EC
:1000F000981310928E0080918E00823318F081E068
:1001000080938D00FF91EF91BF91AF919F918F915F
:100110000F900FBE0F901F90189585BBDD98DE984D
:10012000DF9A85E08A95F1F70000DF988FED9EE277
:100130000197F1F700C00000089585BBDD9ADE98B5
:10014000DF9A85E08A95F1F70000DF988FE99FE05C
:100150000197F1F700C0000008958FEF8ABB84BBC0
:100160002FEF89EF90E0215080409040E1F700C0F0
:10017000000088E30E948D008CE00E948D0086E0E4
:100180000E948D0081E00E948D0080E80C948D001B
:10019000CF93DF93EC018991882319F00E949D0091
:1001A000FACFDF91CF91089581E00E948D0080E821
:1001B0000C948D00379A86B1876086B980B78F71AD
:1001C00080BF87B1806C87B9389A3D9808950E94A6
:1001D000DA00369A8FEF87BB0E94AD000E9449007B
:1001E00086E690E00E94C80080EC0E948D0081E7C6
:1001F00090E00E94C8002FEF8BE792E921508040E9
:100200009040E1F700C000000E94D4007894349B35
:1002100003C084B188BB349A80918D008130B9F7D6
:10022000F89480E090E020918E0030E082179307F0
:1002300024F410928E000196F6CF10928D0080E883
:100240000E948D0081E890E00E94C800CBEBD0E0D6
:100250000FEA10E08991F80181938F010E949D00BF
:10026000F0E0C73CDF07B1F780EC0E948D0087E823
:1002700090E00E94C800C0E2D0E0FE01E955FF4FC7
:100280008081FE01E55FFE4F80830E949D00C632A3
:10029000D10511F4C7E2D0E02196CD32D1056CF33F
:1002A0002FEF89E698E1215080409040E1F700C0AF
:0802B0000000ACCFF894FFCF71
:1002B800244750524D434B656C6F6D706F6B203403
:1002C800004D696B726F6B6F6E74726F6C6C6572D8
:0C02D800004C41543A20004C4F473A00C3
:00000001FF
