S019000054696D65722064616E20436F756E7465722E73726563B7
S113000014C023C022C021C020C01FC01EC01DC0F8
S11300101CC01BC01AC019C018C017C016C015C018
S113002014C013C012C01FC010C011241FBECFE5DE
S1130030D2E0DEBFCDBF20E0A0E6B0E001C01D925B
S1130040A236B207E1F702D02DC0DACF81E087BB38
S113005088E083BF88EC8CBF82E089BF789483B743
S1130060856083BFFFCF1F920F920FB60F921124AA
S11300708F939F938091600090916100019690937B
S113008061008093600098B381E0892788BB109257
S11300906100109260009F918F910F900FBE0F909E
S10B00A01F901895F894FFCF9E
S9030000FC
