:100000000C942A000C943C000C943C000C943C0092
:100010000C943C000C943C000C943C000C943C0070
:100020000C943C000C943C000C943C000C943C0060
:100030000C943C000C943C000C943C000C943C0050
:100040000C943C000C943C000C943C000C943C0040
:100050000C943C0011241FBECFE5D4E0DEBFCDBF21
:1000600020E0A0E6B0E001C01D92A136B207E1F7A2
:100070000E943E000C9447000C94000083EC88BB67
:100080008FE087BB000086B380936000FFCFF894B9
:02009000FFCFA0
:00000001FF
