S01B0000506572636F6261616E205072616B74696B756D2E73726563A6
S11300000C942A000C9440000C9434000C9434009A
S11300100C9434000C9434000C9434000C9434008C
S11300200C9434000C9434000C9434000C9434007C
S11300300C9434000C9434000C9434000C9434006C
S11300400C9434000C9434000C9434000C9434005C
S11300500C94340011241FBECFE5D4E0DEBFCDBF25
S11300600E9436000C945D000C940000BB9A11BAF7
S113007084E082BB80E48BBF83E085BF7894FFCFAC
S11300801F920F920FB60F9211242F938F939F9369
S113009098B388E0892788BB2FEF89E698E121503F
S11300A080409040E1F700C000009F918F912F9114
S11100B00F900FBE0F901F901895F894FFCF7D
S9030000FC
