S011000031366269742070776D2E73726563F9
S11300000C942A000C943F000C943F000C943F0085
S11300100C943F000C943F000C944C000C943F0053
S11300200C943F000C943F000C943F000C943F0050
S11300300C943F000C943F000C943F000C943F0040
S11300400C943F000C943F000C943F000C943F0030
S11300500C943F0011241FBECFE5D4E0DEBFCDBF1A
S113006010E0A0E6B0E0EAE7F4E002C005900D92EB
S1130070A436B107D9F70E9441000C943B020C94BA
S1130080000090E191BB8FB583628FBD8EB5816115
S11300908EBD99BF7894FFCF1F920F920FB60F9227
S11300A01124CF92DF92EF92FF922F933F934F93BD
S11300B05F936F937F938F939F93AF93BF93CF93EC
S11300C0DF93EF93FF938FEF9FEF9BBD8ABDCAB57C
S11300D0DBB520E030E048EC52E4609160007091C0
S11300E0610080916200909163000E949F006B0107
S11300F07C01BE0180E090E00E9440019B01AC01C4
S1130100C701B6010E94CE010E94110179BD68BDEC
S1130110FF91EF91DF91CF91BF91AF919F918F911B
S11301207F916F915F914F913F912F91FF90EF904D
S1130130DF90CF900F900FBE0F901F9018950E94E4
S1130140B3000C9494010E948D0158F00E94860122
S113015040F029F45F3F29F00C947D0151110C9477
S1130160C8010C9483010E94A50168F39923B1F39B
S1130170552391F3951B550BBB27AA2762177307C9
S1130180840738F09F5F5F4F220F331F441FAA1F5D
S1130190A9F335D00E2E3AF0E0E832D09150504019
S11301A0E695001CCAF72BD0FE2F29D0660F771FC7
S11301B0881FBB1F261737074807AB07B0E809F0AD
S11301C0BB0B802DBF01FF2793585F4F3AF09E3F32
S11301D0510578F00C947D010C94C8015F3FE4F361
S11301E0983ED4F3869577956795B795F7959F5F75
S11301F0C9F7880F911D9695879597F90895E1E0C1
S1130200660F771F881FBB1F621773078407BA071F
S113021020F0621B730B840BBA0BEE1F88F7E0957A
S113022008950E94AD0188F09F5798F0B92F99273F
S1130230B751B0F0E1F0660F771F881F991F1AF0CD
S1130240BA95C9F714C0B13091F00E94C701B1E06A
S113025008950C94C701672F782F8827B85F39F069
S1130260B93FCCF3869577956795B395D9F73EF466
S113027090958095709561957F4F8F4F9F4F08950E
S1130280E89409C097FB3EF490958095709561952C
S11302907F4F8F4F9F4F9923A9F0F92F96E9BB27E2
S11302A09395F695879577956795B795F111F8CF5E
S11302B0FAF4BB0F11F460FF1BC06F5F7F4F8F4FC9
S11302C09F4F16C0882311F096E911C0772321F0BF
S11302D09EE8872F762F05C0662371F096E8862F57
S11302E070E060E02AF09A95660F771F881FDAF7AE
S11302F0880F9695879597F9089597F99F6780E8F1
S113030070E060E008959FEF80EC089500240A9463
S11303101616170618060906089500240A941216DC
S11303201306140605060895092E0394000C11F40F
S1130330882352F0BB0F40F4BF2B11F460FF04C0BC
S11303406F5F7F4F8F4F9F4F089557FD9058440F15
S1130350551F59F05F3F71F04795880F97FB991F20
S113036061F09F3F79F087950895121613061406DD
S1130370551FF2CF4695F1DF08C01616170618066A
S1130380991FF1CF86957105610508940895E89445
S1130390BB2766277727CB0197F908950E94E101CF
S11303A00C9494010E94860138F00E948D0120F083
S11303B0952311F00C947D010C94830111240C9469
S11303C0C8010E94A50170F3959FC1F3950F50E0F9
S11303D0551F629FF001729FBB27F00DB11D639FF3
S11303E0AA27F00DB11DAA1F649F6627B00DA11D99
S11303F0661F829F2227B00DA11D621F739FB00D3F
S1130400A11D621F839FA00D611D221F749F3327AE
S1130410A00D611D231F849F600D211D822F762F47
S11304206A2F11249F5750409AF0F1F088234AF024
S1130430EE0FFF1FBB1F661F771F881F9150504090
S1130440A9F79E3F510580F00C947D010C94C801DE
S11304505F3FE4F3983ED4F3869577956795B79517
S1130460F795E7959F5FC1F7FE2B880F911D969531
S10D0470879597F90895F894FFCFDB
S107047A00004842F0
S9030000FC
