S01D000041444320696E707574206469666572656E7369616C2E7372656349
S11300000C942A000C9434000C9434000C943400A6
S11300100C9434000C9434000C9434000C9434008C
S11300200C9434000C9434000C9434000C9434007C
S11300300C9434000C9434000C9434000C9434006C
S11300400C9434000C9434000C9434000C9434005C
S11300500C94340011241FBECFE5D4E0DEBFCDBF25
S11300600E9446000C945D000C940000379A86B1FF
S1130070876086B9359A80B78F7180BF87B18F73D7
S113008087B987B1896087B93D9808950E94360081
S1130090369A8FEF81BB84BB2FEF83ED90E3215021
S11300A080409040E1F700C00000349BF5CF84B15C
S11100B082BB85B185BB349AEFCFF894FFCFA5
S9030000FC
