S0110000504552434F4241414E2E7372656388
S11300000C942A000C9434000C9434000C943400A6
S11300100C9434000C9434000C9434000C9434008C
S11300200C9434000C9434000C9434000C9434007C
S11300300C9434000C9434000C9434000C9434006C
S11300400C9434000C9434000C9434000C9434005C
S11300500C94340011241FBECFE5D4E0DEBFCDBF25
S11300600E9444000C9452000C940000379A86B10C
S1130070876086B9359A80B78F7180BF87B1806CED
S113008087B9389A3D9808950E943600369A8FEFC2
S113009081BB84BB349BFECF84B182BB85B185BB5D
S10B00A0349AF8CFF894FFCF65
S9030000FC
