S00B00005554532E737265631D
S11300000C942A000C943C000C943C000C943C008E
S11300100C943C000C943C000C943C000C943C006C
S11300200C943C000C943C000C943C000C943C005C
S11300300C943C000C943C000C943C000C943C004C
S11300400C943C000C943C000C943C000C943C003C
S11300500C943C0011241FBECFE5D4E0DEBFCDBF1D
S113006020E0A0E6B0E001C01D92A136B207E1F79E
S11300700E943E000C944D000C940000BC9ADE9A41
S113008085E08A95F1F7000089B380936000CE99EA
S111009002C0C49AFCCFC498FACFF894FFCFF4
S9030000FC
