:100000000C942A000C944C000C9434000C94340092
:100010000C9434000C9434000C9434000C94340090
:100020000C9434000C9434000C9434000C94340080
:100030000C9434000C9434000C9434000C94340070
:100040000C9434000C9434000C9434000C94340060
:100050000C94340011241FBECFE5D4E0DEBFCDBF29
:100060000E9436000C9469000C94000011BA84E0E0
:1000700082BB80E48BBF83E085BF789498E088B32F
:10008000892788BB2FEF33EC89E021503040804036
:10009000E1F700C00000F3CF1F920F920FB60F924E
:1000A00011242F938F939F9397B388E0892787BB61
:1000B0002FEF89E698E1215080409040E1F700C0A1
:1000C00000009F918F912F910F900FBE0F901F9066
:0600D0001895F894FFCF23
:00000001FF
